:10080000E4F5A07F3812086C12085D7F0112086CB5
:1008100012085D7F1012086C12085D7F0C12086CC4
:1008200012085D7F8112086C12085D7F4712087AFA
:1008300012085D7F4112087A12085D7F4E12087A15
:1008400012085D7F4512087A12085D7F5312087AFC
:0D08500012085D7F4812087A12085D80A62C
:0E086C008FA0C290C291D29212085DC2922259
:0E087A008FA0D290C291D29212085DC292223B
:0E085D00E4FFFE0FBF00010EBE2EF8BFE0F557
:01086B00226A
:030000000208886B
:0C088800787FE4F6D8FD758107020800B7
:00000001FF
